{
  "_format": "hh-sol-artifact-1",
  "contractName": "EtherbaseUpgradeable",
  "sourceName": "contracts/EtherbaseUpgradeable.sol",
  "abi": [
    {
      "anonymous": false,
      "inputs": [
        {
          "indexed": false,
          "internalType": "address",
          "name": "sender",
          "type": "address"
        },
        {
          "indexed": false,
          "internalType": "uint256",
          "name": "amount",
          "type": "uint256"
        }
      ],
      "name": "EtherReceived",
      "type": "event"
    },
    {
      "anonymous": false,
      "inputs": [
        {
          "indexed": false,
          "internalType": "address",
          "name": "receiver",
          "type": "address"
        },
        {
          "indexed": false,
          "internalType": "uint256",
          "name": "amount",
          "type": "uint256"
        }
      ],
      "name": "EtherSent",
      "type": "event"
    },
    {
      "anonymous": false,
      "inputs": [
        {
          "indexed": true,
          "internalType": "bytes32",
          "name": "role",
          "type": "bytes32"
        },
        {
          "indexed": true,
          "internalType": "bytes32",
          "name": "previousAdminRole",
          "type": "bytes32"
        },
        {
          "indexed": true,
          "internalType": "bytes32",
          "name": "newAdminRole",
          "type": "bytes32"
        }
      ],
      "name": "RoleAdminChanged",
      "type": "event"
    },
    {
      "anonymous": false,
      "inputs": [
        {
          "indexed": true,
          "internalType": "bytes32",
          "name": "role",
          "type": "bytes32"
        },
        {
          "indexed": true,
          "internalType": "address",
          "name": "account",
          "type": "address"
        },
        {
          "indexed": true,
          "internalType": "address",
          "name": "sender",
          "type": "address"
        }
      ],
      "name": "RoleGranted",
      "type": "event"
    },
    {
      "anonymous": false,
      "inputs": [
        {
          "indexed": true,
          "internalType": "bytes32",
          "name": "role",
          "type": "bytes32"
        },
        {
          "indexed": true,
          "internalType": "address",
          "name": "account",
          "type": "address"
        },
        {
          "indexed": true,
          "internalType": "address",
          "name": "sender",
          "type": "address"
        }
      ],
      "name": "RoleRevoked",
      "type": "event"
    },
    {
      "inputs": [],
      "name": "DEFAULT_ADMIN_ROLE",
      "outputs": [
        {
          "internalType": "bytes32",
          "name": "",
          "type": "bytes32"
        }
      ],
      "stateMutability": "view",
      "type": "function"
    },
    {
      "inputs": [],
      "name": "ETHER_MANAGER_ROLE",
      "outputs": [
        {
          "internalType": "bytes32",
          "name": "",
          "type": "bytes32"
        }
      ],
      "stateMutability": "view",
      "type": "function"
    },
    {
      "inputs": [
        {
          "internalType": "bytes32",
          "name": "role",
          "type": "bytes32"
        }
      ],
      "name": "getRoleAdmin",
      "outputs": [
        {
          "internalType": "bytes32",
          "name": "",
          "type": "bytes32"
        }
      ],
      "stateMutability": "view",
      "type": "function"
    },
    {
      "inputs": [
        {
          "internalType": "bytes32",
          "name": "role",
          "type": "bytes32"
        },
        {
          "internalType": "uint256",
          "name": "index",
          "type": "uint256"
        }
      ],
      "name": "getRoleMember",
      "outputs": [
        {
          "internalType": "address",
          "name": "",
          "type": "address"
        }
      ],
      "stateMutability": "view",
      "type": "function"
    },
    {
      "inputs": [
        {
          "internalType": "bytes32",
          "name": "role",
          "type": "bytes32"
        }
      ],
      "name": "getRoleMemberCount",
      "outputs": [
        {
          "internalType": "uint256",
          "name": "",
          "type": "uint256"
        }
      ],
      "stateMutability": "view",
      "type": "function"
    },
    {
      "inputs": [
        {
          "internalType": "bytes32",
          "name": "role",
          "type": "bytes32"
        },
        {
          "internalType": "address",
          "name": "account",
          "type": "address"
        }
      ],
      "name": "grantRole",
      "outputs": [],
      "stateMutability": "nonpayable",
      "type": "function"
    },
    {
      "inputs": [
        {
          "internalType": "bytes32",
          "name": "role",
          "type": "bytes32"
        },
        {
          "internalType": "address",
          "name": "account",
          "type": "address"
        }
      ],
      "name": "hasRole",
      "outputs": [
        {
          "internalType": "bool",
          "name": "",
          "type": "bool"
        }
      ],
      "stateMutability": "view",
      "type": "function"
    },
    {
      "inputs": [
        {
          "internalType": "address",
          "name": "schainOwner",
          "type": "address"
        }
      ],
      "name": "initialize",
      "outputs": [],
      "stateMutability": "nonpayable",
      "type": "function"
    },
    {
      "inputs": [
        {
          "internalType": "address payable",
          "name": "receiver",
          "type": "address"
        },
        {
          "internalType": "uint256",
          "name": "amount",
          "type": "uint256"
        }
      ],
      "name": "partiallyRetrieve",
      "outputs": [],
      "stateMutability": "nonpayable",
      "type": "function"
    },
    {
      "inputs": [
        {
          "internalType": "bytes32",
          "name": "role",
          "type": "bytes32"
        },
        {
          "internalType": "address",
          "name": "account",
          "type": "address"
        }
      ],
      "name": "renounceRole",
      "outputs": [],
      "stateMutability": "nonpayable",
      "type": "function"
    },
    {
      "inputs": [
        {
          "internalType": "address payable",
          "name": "receiver",
          "type": "address"
        }
      ],
      "name": "retrieve",
      "outputs": [],
      "stateMutability": "nonpayable",
      "type": "function"
    },
    {
      "inputs": [
        {
          "internalType": "bytes32",
          "name": "role",
          "type": "bytes32"
        },
        {
          "internalType": "address",
          "name": "account",
          "type": "address"
        }
      ],
      "name": "revokeRole",
      "outputs": [],
      "stateMutability": "nonpayable",
      "type": "function"
    },
    {
      "inputs": [
        {
          "internalType": "bytes4",
          "name": "interfaceId",
          "type": "bytes4"
        }
      ],
      "name": "supportsInterface",
      "outputs": [
        {
          "internalType": "bool",
          "name": "",
          "type": "bool"
        }
      ],
      "stateMutability": "view",
      "type": "function"
    },
    {
      "stateMutability": "payable",
      "type": "receive"
    }
  ],
  "bytecode": "0x608060405234801561001057600080fd5b50611002806100206000396000f3fe6080604052600436106100c65760003560e01c80639010d07c1161007f578063bc2a1e8d11610059578063bc2a1e8d1461026c578063c4d66de81461028e578063ca15c873146102ae578063d547741f146102ce57600080fd5b80639010d07c146101ff57806391d1485414610237578063a217fddf1461025757600080fd5b806301ffc9a71461010a5780630a79309b1461013f578063204a3e9314610161578063248a9ca3146101815780632f2ff15d146101bf57806336568abe146101df57600080fd5b3661010557604080513381523460208201527f1e57e3bb474320be3d2c77138f75b7c3941292d647f5f9634e33a8e94e0e069b910160405180910390a1005b600080fd5b34801561011657600080fd5b5061012a610125366004610cd6565b6102ee565b60405190151581526020015b60405180910390f35b34801561014b57600080fd5b5061015f61015a366004610d15565b610319565b005b34801561016d57600080fd5b5061015f61017c366004610d32565b61038f565b34801561018d57600080fd5b506101b161019c366004610d5e565b60009081526065602052604090206001015490565b604051908152602001610136565b3480156101cb57600080fd5b5061015f6101da366004610d77565b61050b565b3480156101eb57600080fd5b5061015f6101fa366004610d77565b610531565b34801561020b57600080fd5b5061021f61021a366004610da7565b6105af565b6040516001600160a01b039091168152602001610136565b34801561024357600080fd5b5061012a610252366004610d77565b6105ce565b34801561026357600080fd5b506101b1600081565b34801561027857600080fd5b506101b1600080516020610fad83398151915281565b34801561029a57600080fd5b5061015f6102a9366004610d15565b6105f9565b3480156102ba57600080fd5b506101b16102c9366004610d5e565b610690565b3480156102da57600080fd5b5061015f6102e9366004610d77565b6106a7565b60006001600160e01b03198216635a05180f60e01b14806103135750610313826106cd565b92915050565b610331600080516020610fad833981519152336105ce565b6103825760405162461bcd60e51b815260206004820152601e60248201527f45544845525f4d414e414745525f524f4c45206973207265717569726564000060448201526064015b60405180910390fd5b61038c814761038f565b50565b6103a7600080516020610fad833981519152336105ce565b6103f35760405162461bcd60e51b815260206004820152601e60248201527f45544845525f4d414e414745525f524f4c4520697320726571756972656400006044820152606401610379565b6001600160a01b0382166104495760405162461bcd60e51b815260206004820152601b60248201527f52656365697665722061646472657373206973206e6f742073657400000000006044820152606401610379565b4781111561048e5760405162461bcd60e51b8152602060048201526012602482015271496e73756666696369656e742066756e647360701b6044820152606401610379565b604080516001600160a01b0384168152602081018390527f6109e2559dfa766aaec7118351d48a523f0a4157f49c8d68749c8ac41318ad12910160405180910390a16040516001600160a01b0383169082156108fc029083906000818181858888f19350505050158015610506573d6000803e3d6000fd5b505050565b6000828152606560205260409020600101546105278133610702565b6105068383610766565b6001600160a01b03811633146105a15760405162461bcd60e51b815260206004820152602f60248201527f416363657373436f6e74726f6c3a2063616e206f6e6c792072656e6f756e636560448201526e103937b632b9903337b91039b2b63360891b6064820152608401610379565b6105ab8282610788565b5050565b60008281526097602052604081206105c790836107aa565b9392505050565b60009182526065602090815260408084206001600160a01b0393909316845291905290205460ff1690565b600054610100900460ff1680610612575060005460ff16155b61062e5760405162461bcd60e51b815260040161037990610dc9565b600054610100900460ff16158015610650576000805461ffff19166101011790555b6106586107b6565b610663600083610839565b61067b600080516020610fad83398151915283610839565b80156105ab576000805461ff00191690555050565b600081815260976020526040812061031390610843565b6000828152606560205260409020600101546106c38133610702565b6105068383610788565b60006001600160e01b03198216637965db0b60e01b148061031357506301ffc9a760e01b6001600160e01b0319831614610313565b61070c82826105ce565b6105ab57610724816001600160a01b0316601461084d565b61072f83602061084d565b604051602001610740929190610e47565b60408051601f198184030181529082905262461bcd60e51b825261037991600401610ebc565b61077082826109e9565b60008281526097602052604090206105069082610a6f565b6107928282610a84565b60008281526097602052604090206105069082610aeb565b60006105c78383610b00565b600054610100900460ff16806107cf575060005460ff16155b6107eb5760405162461bcd60e51b815260040161037990610dc9565b600054610100900460ff1615801561080d576000805461ffff19166101011790555b610815610b2a565b61081d610b2a565b610825610b2a565b801561038c576000805461ff001916905550565b6105ab8282610766565b6000610313825490565b6060600061085c836002610f05565b610867906002610f24565b67ffffffffffffffff81111561087f5761087f610f3c565b6040519080825280601f01601f1916602001820160405280156108a9576020820181803683370190505b509050600360fc1b816000815181106108c4576108c4610f52565b60200101906001600160f81b031916908160001a905350600f60fb1b816001815181106108f3576108f3610f52565b60200101906001600160f81b031916908160001a9053506000610917846002610f05565b610922906001610f24565b90505b600181111561099a576f181899199a1a9b1b9c1cb0b131b232b360811b85600f166010811061095657610956610f52565b1a60f81b82828151811061096c5761096c610f52565b60200101906001600160f81b031916908160001a90535060049490941c9361099381610f68565b9050610925565b5083156105c75760405162461bcd60e51b815260206004820181905260248201527f537472696e67733a20686578206c656e67746820696e73756666696369656e746044820152606401610379565b6109f382826105ce565b6105ab5760008281526065602090815260408083206001600160a01b03851684529091529020805460ff19166001179055610a2b3390565b6001600160a01b0316816001600160a01b0316837f2f8788117e7eff1d82e926ec794901d17c78024a50270940304540a733656f0d60405160405180910390a45050565b60006105c7836001600160a01b038416610b94565b610a8e82826105ce565b156105ab5760008281526065602090815260408083206001600160a01b0385168085529252808320805460ff1916905551339285917ff6391f5c32d9c69d2a47ea670b442974b53935d1edc7fd64eb21e047a839171b9190a45050565b60006105c7836001600160a01b038416610be3565b6000826000018281548110610b1757610b17610f52565b9060005260206000200154905092915050565b600054610100900460ff1680610b43575060005460ff16155b610b5f5760405162461bcd60e51b815260040161037990610dc9565b600054610100900460ff16158015610825576000805461ffff1916610101179055801561038c576000805461ff001916905550565b6000818152600183016020526040812054610bdb57508154600181810184556000848152602080822090930184905584548482528286019093526040902091909155610313565b506000610313565b60008181526001830160205260408120548015610ccc576000610c07600183610f7f565b8554909150600090610c1b90600190610f7f565b9050818114610c80576000866000018281548110610c3b57610c3b610f52565b9060005260206000200154905080876000018481548110610c5e57610c5e610f52565b6000918252602080832090910192909255918252600188019052604090208390555b8554869080610c9157610c91610f96565b600190038181906000526020600020016000905590558560010160008681526020019081526020016000206000905560019350505050610313565b6000915050610313565b600060208284031215610ce857600080fd5b81356001600160e01b0319811681146105c757600080fd5b6001600160a01b038116811461038c57600080fd5b600060208284031215610d2757600080fd5b81356105c781610d00565b60008060408385031215610d4557600080fd5b8235610d5081610d00565b946020939093013593505050565b600060208284031215610d7057600080fd5b5035919050565b60008060408385031215610d8a57600080fd5b823591506020830135610d9c81610d00565b809150509250929050565b60008060408385031215610dba57600080fd5b50508035926020909101359150565b6020808252602e908201527f496e697469616c697a61626c653a20636f6e747261637420697320616c72656160408201526d191e481a5b9a5d1a585b1a5e995960921b606082015260800190565b60005b83811015610e32578181015183820152602001610e1a565b83811115610e41576000848401525b50505050565b7f416363657373436f6e74726f6c3a206163636f756e7420000000000000000000815260008351610e7f816017850160208801610e17565b7001034b99036b4b9b9b4b733903937b6329607d1b6017918401918201528351610eb0816028840160208801610e17565b01602801949350505050565b6020815260008251806020840152610edb816040850160208701610e17565b601f01601f19169190910160400192915050565b634e487b7160e01b600052601160045260246000fd5b6000816000190483118215151615610f1f57610f1f610eef565b500290565b60008219821115610f3757610f37610eef565b500190565b634e487b7160e01b600052604160045260246000fd5b634e487b7160e01b600052603260045260246000fd5b600081610f7757610f77610eef565b506000190190565b600082821015610f9157610f91610eef565b500390565b634e487b7160e01b600052603160045260246000fdfee0ba7b49edc651b7ad93b374c67f1e9a0d37370168bbb86b81c569ebfa15f046a26469706673582212205676b3b082e025abda718f1da72e33fda5689618e792fedd9368f36578aee7ca64736f6c63430008090033",
  "linkReferences": {},
  "deployedLinkReferences": {}
}